{
  "contractName": "Auction",
  "abi": [
    {
      "inputs": [],
      "stateMutability": "nonpayable",
      "type": "constructor"
    },
    {
      "anonymous": false,
      "inputs": [
        {
          "indexed": false,
          "internalType": "address",
          "name": "Bidder",
          "type": "address"
        },
        {
          "indexed": false,
          "internalType": "uint256",
          "name": "Bid",
          "type": "uint256"
        }
      ],
      "name": "NewBid",
      "type": "event"
    },
    {
      "inputs": [
        {
          "internalType": "uint256",
          "name": "amount",
          "type": "uint256"
        }
      ],
      "name": "BidNow",
      "outputs": [],
      "stateMutability": "payable",
      "type": "function",
      "payable": true
    },
    {
      "inputs": [],
      "name": "GetOwner",
      "outputs": [
        {
          "internalType": "address",
          "name": "",
          "type": "address"
        }
      ],
      "stateMutability": "view",
      "type": "function",
      "constant": true
    },
    {
      "inputs": [],
      "name": "GetHighestBid",
      "outputs": [
        {
          "internalType": "address",
          "name": "bidder",
          "type": "address"
        },
        {
          "internalType": "uint256",
          "name": "amount",
          "type": "uint256"
        }
      ],
      "stateMutability": "view",
      "type": "function",
      "constant": true
    },
    {
      "inputs": [],
      "name": "GetPrevBid",
      "outputs": [
        {
          "internalType": "address",
          "name": "",
          "type": "address"
        },
        {
          "internalType": "uint256",
          "name": "",
          "type": "uint256"
        }
      ],
      "stateMutability": "view",
      "type": "function",
      "constant": true
    },
    {
      "inputs": [],
      "name": "StartAuction",
      "outputs": [],
      "stateMutability": "nonpayable",
      "type": "function"
    },
    {
      "inputs": [],
      "name": "GetStatus",
      "outputs": [
        {
          "internalType": "bool",
          "name": "",
          "type": "bool"
        }
      ],
      "stateMutability": "view",
      "type": "function",
      "constant": true
    },
    {
      "inputs": [
        {
          "internalType": "uint256",
          "name": "val",
          "type": "uint256"
        }
      ],
      "name": "SetTimer",
      "outputs": [],
      "stateMutability": "nonpayable",
      "type": "function"
    },
    {
      "inputs": [],
      "name": "GetTimer",
      "outputs": [
        {
          "internalType": "uint256",
          "name": "",
          "type": "uint256"
        }
      ],
      "stateMutability": "view",
      "type": "function",
      "constant": true
    }
  ],
  "bytecode": "0x608060405234801561001057600080fd5b50601e6006819055506000600560006101000a81548160ff021916908315150217905550336000806101000a81548173ffffffffffffffffffffffffffffffffffffffff021916908373ffffffffffffffffffffffffffffffffffffffff16021790555060006003819055506105478061008b6000396000f3fe60806040526004361061007b5760003560e01c8063bbaeca711161004e578063bbaeca7114610161578063c4e819c21461019c578063d295ebf0146101e4578063e92d976a146101fb5761007b565b806301ed662e146100805780630ae50a39146100ab5780636793570b146100ec578063abd95b9514610134575b600080fd5b34801561008c57600080fd5b50610095610229565b6040518082815260200191505060405180910390f35b3480156100b757600080fd5b506100c0610233565b604051808273ffffffffffffffffffffffffffffffffffffffff16815260200191505060405180910390f35b3480156100f857600080fd5b5061010161025c565b604051808373ffffffffffffffffffffffffffffffffffffffff1681526020018281526020019250505060405180910390f35b34801561014057600080fd5b5061014961028d565b60405180821515815260200191505060405180910390f35b34801561016d57600080fd5b5061019a6004803603602081101561018457600080fd5b81019080803590602001909291905050506102a4565b005b3480156101a857600080fd5b506101b16102ae565b604051808373ffffffffffffffffffffffffffffffffffffffff1681526020018281526020019250505060405180910390f35b3480156101f057600080fd5b506101f96102df565b005b6102276004803603602081101561021157600080fd5b81019080803590602001909291905050506102fc565b005b6000600654905090565b60008060009054906101000a900473ffffffffffffffffffffffffffffffffffffffff16905090565b600080600160009054906101000a900473ffffffffffffffffffffffffffffffffffffffff16600354915091509091565b6000600560009054906101000a900460ff16905090565b8060068190555050565b600080600260009054906101000a900473ffffffffffffffffffffffffffffffffffffffff16600454915091509091565b6001600560006101000a81548160ff021916908315150217905550565b6003548111156104a05760035460076000600160009054906101000a900473ffffffffffffffffffffffffffffffffffffffff1673ffffffffffffffffffffffffffffffffffffffff1673ffffffffffffffffffffffffffffffffffffffff16815260200190815260200160002081905550600354600481905550600160009054906101000a900473ffffffffffffffffffffffffffffffffffffffff16600260006101000a81548173ffffffffffffffffffffffffffffffffffffffff021916908373ffffffffffffffffffffffffffffffffffffffff1602179055508060038190555033600160006101000a81548173ffffffffffffffffffffffffffffffffffffffff021916908373ffffffffffffffffffffffffffffffffffffffff1602179055507fdd0b6c6a77960e2066c96171b4d7ac9e8b4c184011f38544afa36a5bb63ec59f600160009054906101000a900473ffffffffffffffffffffffffffffffffffffffff16600354604051808373ffffffffffffffffffffffffffffffffffffffff1681526020018281526020019250505060405180910390a161050e565b6040517f08c379a00000000000000000000000000000000000000000000000000000000081526004018080602001828103825260138152602001807f426964206e6f74206869676820456e6f7567680000000000000000000000000081525060200191505060405180910390fd5b5056fea26469706673582212206b5b36f8f48786e994ac5a30443f396a0982b178247405c64fe14c9986159ada64736f6c634300060c0033",
  "immutableReferences": {},
  "source": "// SPDX-License-Identifier: MIT\npragma solidity >=0.6.0;\n\ncontract Auction {\n \n  address payable Owner;\n  address c_Highest_bidder;\n  address prev_highest_bidder;\n  uint c_highest_bid;\n  uint prev_highest_bid;\n  bool status;\n  uint timer;\n\n  mapping(address=>uint) bidders;\n\n  \n  constructor() public{\n    timer = 30;\n    status = false;\n    Owner =  payable(msg.sender);\n    c_highest_bid = 0;\n    \n  }\n  event NewBid(\n    address Bidder,\n    uint Bid\n  );\n  \n  function BidNow(uint amount) public payable {\n      if(amount > c_highest_bid){\n        \n        //update bidders \n        bidders[c_Highest_bidder] = c_highest_bid;\n        // set current highest bid to prev highest bid\n        prev_highest_bid = c_highest_bid;\n        prev_highest_bidder = c_Highest_bidder;\n\n        //update current highest bidder\n        c_highest_bid = amount;\n        c_Highest_bidder = msg.sender;\n\n        \n        //Emit new Bid received\n        emit NewBid(c_Highest_bidder,c_highest_bid); \n\n      }else{\n        revert('Bid not high Enough');\n      }\n  }\n  \n  function GetOwner() public view returns(address){\n    return Owner;\n  }\n\n  function GetHighestBid() public view returns(address bidder,uint amount){\n    return (c_Highest_bidder , c_highest_bid);\n  }\n  function GetPrevBid() public view returns(address,uint){\n    return (prev_highest_bidder,prev_highest_bid);\n  }\n  function StartAuction() public{\n\n      status = true;\n  }\n  function GetStatus() public view returns(bool){\n    return status;\n  }\n  function SetTimer(uint val) public{\n    timer = val;\n    \n  }\n  function GetTimer() public view returns(uint){\n    return timer;\n  }\n}\n",
  "sourcePath": "D:\\BlockChain Projects\\Auction-DApp\\contracts\\Auction.sol",
  "compiler": {
    "name": "solc",
    "version": "0.6.12+commit.27d51765.Emscripten.clang"
  },
  "schemaVersion": "3.4.4",
  "updatedAt": "2022-03-01T14:41:32.605Z",
  "networkType": "ethereum",
  "devdoc": {
    "kind": "dev",
    "methods": {},
    "version": 1
  },
  "userdoc": {
    "kind": "user",
    "methods": {},
    "version": 1
  }
}