{
  "contractName": "SimpleStorage",
  "abi": [
    {
      "inputs": [],
      "payable": false,
      "stateMutability": "nonpayable",
      "type": "constructor"
    },
    {
      "constant": false,
      "inputs": [
        {
          "internalType": "uint256",
          "name": "x",
          "type": "uint256"
        }
      ],
      "name": "set",
      "outputs": [],
      "payable": false,
      "stateMutability": "nonpayable",
      "type": "function"
    },
    {
      "constant": true,
      "inputs": [],
      "name": "get",
      "outputs": [
        {
          "internalType": "uint256",
          "name": "",
          "type": "uint256"
        }
      ],
      "payable": false,
      "stateMutability": "view",
      "type": "function"
    },
    {
      "constant": true,
      "inputs": [],
      "name": "GetOwner",
      "outputs": [
        {
          "internalType": "address",
          "name": "",
          "type": "address"
        }
      ],
      "payable": false,
      "stateMutability": "view",
      "type": "function"
    }
  ],
  "bytecode": "0x608060405234801561001057600080fd5b5033600160006101000a81548173ffffffffffffffffffffffffffffffffffffffff021916908373ffffffffffffffffffffffffffffffffffffffff160217905550606460008190555061014e806100696000396000f3fe608060405234801561001057600080fd5b50600436106100415760003560e01c80630ae50a391461004657806360fe47b1146100905780636d4ce63c146100be575b600080fd5b61004e6100dc565b604051808273ffffffffffffffffffffffffffffffffffffffff1673ffffffffffffffffffffffffffffffffffffffff16815260200191505060405180910390f35b6100bc600480360360208110156100a657600080fd5b8101908080359060200190929190505050610106565b005b6100c6610110565b6040518082815260200191505060405180910390f35b6000600160009054906101000a900473ffffffffffffffffffffffffffffffffffffffff16905090565b8060008190555050565b6000805490509056fea265627a7a72315820ca83a02e40312b86a878412f82a71522fac243d8b667d333408bd38345d3e95064736f6c63430005100032",
  "source": "// SPDX-License-Identifier: MIT\npragma solidity >=0.4.21 <8.10.0;\n\ncontract SimpleStorage {\n  uint storedData;\n  address Owner;\n\n  constructor() public{\n    Owner = msg.sender;\n    storedData = 100;\n  }\n\n  function set(uint x) public {\n    storedData = x;\n  }\n\n  function get() public view returns (uint) {\n    return storedData;\n  }\n  function GetOwner() public view returns(address){\n    return Owner;\n  }\n}\n",
  "sourcePath": "D:\\BlockChain Projects\\Auction-DApp\\contracts\\SimpleStorage.sol",
  "compiler": {
    "name": "solc",
    "version": "0.5.16+commit.9c3226ce.Emscripten.clang"
  },
  "schemaVersion": "3.4.4",
  "updatedAt": "2022-02-18T17:35:33.583Z",
  "devdoc": {
    "methods": {}
  },
  "userdoc": {
    "methods": {}
  }
}